:103800000C94341C0C94511C0C94511C0C94511CA1
:103810000C94511C0C94511C0C94511C0C94511C74
:103820000C94511C0C94511C0C94511C0C94511C64
:103830000C94511C0C94511C0C94511C0C94511C54
:103840000C94511C0C94511C0C94511C0C94511C44
:103850000C94511C0C94511C0C94511C0C94511C34
:103860000C94511C0C94511C11241FBECFEFD4E0BA
:10387000DEBFCDBF11E0A0E0B1E0E8EBFDE302C0A8
:1038800005900D92A230B107D9F722E0A2E0B1E095
:1038900001C01D92AD30B207E1F70E94041D0C94E7
:1038A000DA1E0C94001C9091C00095FFFCCF809311
:1038B000C6000895CF93C82F8595859585958595E4
:1038C000805DCF70CA303CF0C95A0E94531C8C2FC7
:1038D000CF910C94531CC05DF8CFCF92DF92EF9242
:1038E000FF92C12CD12C76018091C00087FF07C0C8
:1038F0008091C600FF90EF90DF90CF9008958FEFFA
:10390000C81AD80AE80AF80A81E4C81682E4D80678
:103910008FE0E806F10440F3E0910201F091030129
:103920000995E2CFCF930E946D1CC82F0E94531CB3
:10393000C13624F0C7558C2FCF910895C033DCF3E6
:10394000C053F9CFCF930E94921CC82F0E94921CA3
:10395000C295C07F8C0FCF910895CF93C82FC150CF
:1039600010F4CF9108950E946D1CF9CFCF93C82F0A
:103970000E946D1C803251F484E10E94531C8C2FF4
:103980000E94531C80E1CF910C94531C8091040140
:103990008F5F80930401853031F4E0910201F09152
:1039A0000301CF910994CF9108950E946D1C80323C
:1039B00031F484E10E94531C80E10C94531C8091EB
:1039C00004018F5F80930401853029F4E0910201A6
:1039D000F091030109940895815008F408952D9AF7
:1039E0002FEF30E792E0215030409040E1F700C0E7
:1039F00000002D982FEF30E792E0215030409040AA
:103A0000E1F700C00000E8CF0000F0E0E0E0E49162
:103A100089E18093C4001092C50088E18093C100C1
:103A200086E08093C2005098589A259A83E00E94BD
:103A3000EC1CFF24F3940E946D1C803319F40E9447
:103A4000D51CF9CF8133F1F40E946D1C803209F04E
:103A5000A3C184E10E94531C81E40E94531C86E5AB
:103A60000E94531C82E50E94531C80E20E94531C5A
:103A700089E40E94531C83E50E94531C80E50E9448
:103A8000531C50C1803439F40E946D1C8638B8F242
:103A90000E946D1CD4CF8134A1F40E946D1C80382B
:103AA00021F482E00E94B61CC6CF813811F481E077
:103AB000F9CF823811F480E1F5CF8839B9F583E088
:103AC000F1CF823421F484E10E94AD1CB8CF85345B
:103AD00011F485E0F9CF982F9D7F903509F4AFCF91
:103AE000813509F4ACCF853549F40E946D1C809373
:103AF00006010E946D1C80930701A1CF8635C1F499
:103B00000E946D1C803379F40E946D1C0E946D1C14
:103B1000182F0E946D1C8EE1112321F284E91130CF
:103B200009F28BE0BFCF83E00E94AD1C80E0BACFEA
:103B3000843609F0C8C00E946D1C809309020E945F
:103B40006D1C8093080280910C028E7F80930C0282
:103B50000E946D1C853429F480910C028160809351
:103B60000C0208E011E05801D12CC12C8091080210
:103B700090910902C816D906F0F00E946D1C80329F
:103B800009F00AC12091060130910701220F331F6D
:103B900080910C0280FF32C0309307012093060110
:103BA00090E080E02091080230910902821793078B
:103BB00058F084E164CF0E946D1CF50181935F0190
:103BC000FFEFCF1ADF0AD2CFF999FECF209106017D
:103BD0003091070132BD21BDF80121918F0120BD37
:103BE000FA9AF99A20910601309107012F5F3F4F11
:103BF00030930701209306010196D4CF80910701ED
:103C0000880F880B8F2180930B023093070120933C
:103C100006018091080280FF09C0809108029091FE
:103C2000090201969093090280930802F894F99989
:103C3000FECF1127E0910601F0910701C8E0D1E025
:103C40008091080290910902103091F40091570080
:103C500001700130D9F303E000935700E89500911B
:103C6000570001700130D9F301E100935700E89546
:103C7000099019900091570001700130D9F301E0CB
:103C800000935700E8951395103498F01127009190
:103C9000570001700130D9F305E000935700E89513
:103CA0000091570001700130D9F301E100935700F2
:103CB000E8953296029709F0C7CF103011F00296BE
:103CC000E5CF112476CF843709F052C00E946D1CD5
:103CD000809309020E946D1C809308028091060166
:103CE00090910701880F991F909307018093060117
:103CF0000E946D1C90910C028534C1F491609093E8
:103D00000C020E946D1C803209F095CE84E10E9465
:103D1000531C10E000E080910802909109020817FE
:103D2000190730F080E10E94531C85CE9E7FE7CFBB
:103D300080910C02E0910601F091070180FF14C010
:103D4000F999FECFF2BDE1BDF89A80B50E94531CEF
:103D5000809106019091070101969093070180934D
:103D600006010F5F1F4FD7CF81FDF2CF8491EECFB9
:103D7000853779F40E946D1C803271F484E10E94D1
:103D8000531C8EE10E94531C84E90E94531C8BE05B
:103D900076CE863709F4CACE809104018F5F809376
:103DA0000401853009F047CEE0910201F091030152
:083DB000099541CEF894FFCF04
:023DB800800089
:0400000300003800C1
:00000001FF
